{
  "_format": "hh-sol-artifact-1",
  "contractName": "RockPaperScissors",
  "sourceName": "contracts/RockPaperScissors.sol",
  "abi": [
    {
      "inputs": [
        {
          "internalType": "contract IERC20",
          "name": "_token",
          "type": "address"
        }
      ],
      "stateMutability": "nonpayable",
      "type": "constructor"
    },
    {
      "inputs": [
        {
          "internalType": "address",
          "name": "owner",
          "type": "address"
        }
      ],
      "name": "OwnableInvalidOwner",
      "type": "error"
    },
    {
      "inputs": [
        {
          "internalType": "address",
          "name": "account",
          "type": "address"
        }
      ],
      "name": "OwnableUnauthorizedAccount",
      "type": "error"
    },
    {
      "anonymous": false,
      "inputs": [
        {
          "indexed": false,
          "internalType": "uint256",
          "name": "gameId",
          "type": "uint256"
        },
        {
          "indexed": false,
          "internalType": "address",
          "name": "player1",
          "type": "address"
        }
      ],
      "name": "GameCreated",
      "type": "event"
    },
    {
      "anonymous": false,
      "inputs": [
        {
          "indexed": false,
          "internalType": "uint256",
          "name": "gameId",
          "type": "uint256"
        },
        {
          "indexed": false,
          "internalType": "enum RockPaperScissors.GameResult",
          "name": "result",
          "type": "uint8"
        }
      ],
      "name": "GameOutcome",
      "type": "event"
    },
    {
      "anonymous": false,
      "inputs": [
        {
          "indexed": true,
          "internalType": "address",
          "name": "previousOwner",
          "type": "address"
        },
        {
          "indexed": true,
          "internalType": "address",
          "name": "newOwner",
          "type": "address"
        }
      ],
      "name": "OwnershipTransferStarted",
      "type": "event"
    },
    {
      "anonymous": false,
      "inputs": [
        {
          "indexed": true,
          "internalType": "address",
          "name": "previousOwner",
          "type": "address"
        },
        {
          "indexed": true,
          "internalType": "address",
          "name": "newOwner",
          "type": "address"
        }
      ],
      "name": "OwnershipTransferred",
      "type": "event"
    },
    {
      "inputs": [],
      "name": "acceptOwnership",
      "outputs": [],
      "stateMutability": "nonpayable",
      "type": "function"
    },
    {
      "inputs": [
        {
          "internalType": "enum RockPaperScissors.Choice",
          "name": "choice1",
          "type": "uint8"
        }
      ],
      "name": "createGame",
      "outputs": [
        {
          "internalType": "uint256",
          "name": "",
          "type": "uint256"
        }
      ],
      "stateMutability": "nonpayable",
      "type": "function"
    },
    {
      "inputs": [],
      "name": "gameIdCounter",
      "outputs": [
        {
          "internalType": "uint256",
          "name": "",
          "type": "uint256"
        }
      ],
      "stateMutability": "view",
      "type": "function"
    },
    {
      "inputs": [
        {
          "internalType": "uint256",
          "name": "",
          "type": "uint256"
        }
      ],
      "name": "games",
      "outputs": [
        {
          "internalType": "address",
          "name": "player1",
          "type": "address"
        },
        {
          "internalType": "enum RockPaperScissors.Choice",
          "name": "choice1",
          "type": "uint8"
        },
        {
          "internalType": "address",
          "name": "player2",
          "type": "address"
        },
        {
          "internalType": "enum RockPaperScissors.Choice",
          "name": "choice2",
          "type": "uint8"
        },
        {
          "internalType": "bool",
          "name": "isActive",
          "type": "bool"
        }
      ],
      "stateMutability": "view",
      "type": "function"
    },
    {
      "inputs": [
        {
          "internalType": "uint256",
          "name": "gameId",
          "type": "uint256"
        },
        {
          "internalType": "enum RockPaperScissors.Choice",
          "name": "choice2",
          "type": "uint8"
        }
      ],
      "name": "joinGame",
      "outputs": [],
      "stateMutability": "nonpayable",
      "type": "function"
    },
    {
      "inputs": [],
      "name": "owner",
      "outputs": [
        {
          "internalType": "address",
          "name": "",
          "type": "address"
        }
      ],
      "stateMutability": "view",
      "type": "function"
    },
    {
      "inputs": [],
      "name": "pendingOwner",
      "outputs": [
        {
          "internalType": "address",
          "name": "",
          "type": "address"
        }
      ],
      "stateMutability": "view",
      "type": "function"
    },
    {
      "inputs": [],
      "name": "renounceOwnership",
      "outputs": [],
      "stateMutability": "nonpayable",
      "type": "function"
    },
    {
      "inputs": [],
      "name": "token",
      "outputs": [
        {
          "internalType": "contract IERC20",
          "name": "",
          "type": "address"
        }
      ],
      "stateMutability": "view",
      "type": "function"
    },
    {
      "inputs": [
        {
          "internalType": "address",
          "name": "newOwner",
          "type": "address"
        }
      ],
      "name": "transferOwnership",
      "outputs": [],
      "stateMutability": "nonpayable",
      "type": "function"
    }
  ],
  "bytecode": "0x60806040523480156200001157600080fd5b5060405162001b3a38038062001b3a833981810160405281019062000037919062000282565b33600073ffffffffffffffffffffffffffffffffffffffff168173ffffffffffffffffffffffffffffffffffffffff1603620000ad5760006040517f1e4fbdf7000000000000000000000000000000000000000000000000000000008152600401620000a49190620002c5565b60405180910390fd5b620000be816200010760201b60201c565b5080600260006101000a81548173ffffffffffffffffffffffffffffffffffffffff021916908373ffffffffffffffffffffffffffffffffffffffff16021790555050620002e2565b600160006101000a81549073ffffffffffffffffffffffffffffffffffffffff02191690556200013d816200014060201b60201c565b50565b60008060009054906101000a900473ffffffffffffffffffffffffffffffffffffffff169050816000806101000a81548173ffffffffffffffffffffffffffffffffffffffff021916908373ffffffffffffffffffffffffffffffffffffffff1602179055508173ffffffffffffffffffffffffffffffffffffffff168173ffffffffffffffffffffffffffffffffffffffff167f8be0079c531659141344cd1fd0a4f28419497f9722a3daafe3b4186f6b6457e060405160405180910390a35050565b600080fd5b600073ffffffffffffffffffffffffffffffffffffffff82169050919050565b6000620002368262000209565b9050919050565b60006200024a8262000229565b9050919050565b6200025c816200023d565b81146200026857600080fd5b50565b6000815190506200027c8162000251565b92915050565b6000602082840312156200029b576200029a62000204565b5b6000620002ab848285016200026b565b91505092915050565b620002bf8162000229565b82525050565b6000602082019050620002dc6000830184620002b4565b92915050565b61184880620002f26000396000f3fe608060405234801561001057600080fd5b506004361061009e5760003560e01c8063ca6649c511610066578063ca6649c514610127578063e30c397814610143578063e580f6ab14610161578063f2fde38b14610191578063fc0c546a146101ad5761009e565b8063117a5b90146100a35780631bb412d6146100d7578063715018a6146100f557806379ba5097146100ff5780638da5cb5b14610109575b600080fd5b6100bd60048036038101906100b891906110a1565b6101cb565b6040516100ce9594939291906111a1565b60405180910390f35b6100df610268565b6040516100ec9190611203565b60405180910390f35b6100fd61026e565b005b610107610282565b005b610111610311565b60405161011e919061121e565b60405180910390f35b610141600480360381019061013c919061125e565b61033a565b005b61014b610586565b604051610158919061121e565b60405180910390f35b61017b6004803603810190610176919061129e565b6105b0565b6040516101889190611203565b60405180910390f35b6101ab60048036038101906101a691906112f7565b6107b1565b005b6101b561085e565b6040516101c29190611383565b60405180910390f35b60036020528060005260406000206000915090508060000160009054906101000a900473ffffffffffffffffffffffffffffffffffffffff16908060000160149054906101000a900460ff16908060010160009054906101000a900473ffffffffffffffffffffffffffffffffffffffff16908060010160149054906101000a900460ff16908060010160159054906101000a900460ff16905085565b60045481565b610276610884565b610280600061090b565b565b600061028c61093c565b90508073ffffffffffffffffffffffffffffffffffffffff166102ad610586565b73ffffffffffffffffffffffffffffffffffffffff161461030557806040517f118cdaa70000000000000000000000000000000000000000000000000000000081526004016102fc919061121e565b60405180910390fd5b61030e8161090b565b50565b60008060009054906101000a900473ffffffffffffffffffffffffffffffffffffffff16905090565b6000600360008481526020019081526020016000209050600073ffffffffffffffffffffffffffffffffffffffff168160000160009054906101000a900473ffffffffffffffffffffffffffffffffffffffff1673ffffffffffffffffffffffffffffffffffffffff16036103e4576040517f08c379a00000000000000000000000000000000000000000000000000000000081526004016103db906113fb565b60405180910390fd5b600073ffffffffffffffffffffffffffffffffffffffff168160010160009054906101000a900473ffffffffffffffffffffffffffffffffffffffff1673ffffffffffffffffffffffffffffffffffffffff1614610477576040517f08c379a000000000000000000000000000000000000000000000000000000000815260040161046e90611467565b60405180910390fd5b8060000160009054906101000a900473ffffffffffffffffffffffffffffffffffffffff1673ffffffffffffffffffffffffffffffffffffffff163373ffffffffffffffffffffffffffffffffffffffff1603610509576040517f08c379a0000000000000000000000000000000000000000000000000000000008152600401610500906114d3565b60405180910390fd5b338160010160006101000a81548173ffffffffffffffffffffffffffffffffffffffff021916908373ffffffffffffffffffffffffffffffffffffffff160217905550818160010160146101000a81548160ff021916908360038111156105735761057261110f565b5b021790555061058183610944565b505050565b6000600160009054906101000a900473ffffffffffffffffffffffffffffffffffffffff16905090565b6000600460008154809291906105c590611522565b91905055506040518060a001604052803373ffffffffffffffffffffffffffffffffffffffff1681526020018360038111156106045761060361110f565b5b8152602001600073ffffffffffffffffffffffffffffffffffffffff1681526020016000600381111561063a5761063961110f565b5b81526020016001151581525060036000600454815260200190815260200160002060008201518160000160006101000a81548173ffffffffffffffffffffffffffffffffffffffff021916908373ffffffffffffffffffffffffffffffffffffffff16021790555060208201518160000160146101000a81548160ff021916908360038111156106cd576106cc61110f565b5b021790555060408201518160010160006101000a81548173ffffffffffffffffffffffffffffffffffffffff021916908373ffffffffffffffffffffffffffffffffffffffff16021790555060608201518160010160146101000a81548160ff021916908360038111156107445761074361110f565b5b021790555060808201518160010160156101000a81548160ff0219169083151502179055509050507fc3e0f84839dc888c892a013d10c8f9d6dc05a21a879d0ce468ca558013e9121c6004543360405161079f92919061156a565b60405180910390a16004549050919050565b6107b9610884565b80600160006101000a81548173ffffffffffffffffffffffffffffffffffffffff021916908373ffffffffffffffffffffffffffffffffffffffff1602179055508073ffffffffffffffffffffffffffffffffffffffff16610819610311565b73ffffffffffffffffffffffffffffffffffffffff167f38d16b8cac22d99fc7c124b9cd0de2d3fa1faef420bfe791d8c362d765e2270060405160405180910390a350565b600260009054906101000a900473ffffffffffffffffffffffffffffffffffffffff1681565b61088c61093c565b73ffffffffffffffffffffffffffffffffffffffff166108aa610311565b73ffffffffffffffffffffffffffffffffffffffff1614610909576108cd61093c565b6040517f118cdaa7000000000000000000000000000000000000000000000000000000008152600401610900919061121e565b60405180910390fd5b565b600160006101000a81549073ffffffffffffffffffffffffffffffffffffffff021916905561093981610fa2565b50565b600033905090565b60006003600083815260200190815260200160002090508060010160159054906101000a900460ff166109ac576040517f08c379a00000000000000000000000000000000000000000000000000000000081526004016109a3906115df565b60405180910390fd5b60008160000160149054906101000a900460ff16905060008260010160149054906101000a900460ff16905060008160038111156109ed576109ec61110f565b5b836003811115610a00576109ff61110f565b5b03610a0e5760039050610b36565b60016003811115610a2257610a2161110f565b5b836003811115610a3557610a3461110f565b5b148015610a655750600380811115610a5057610a4f61110f565b5b826003811115610a6357610a6261110f565b5b145b80610ac4575060026003811115610a7f57610a7e61110f565b5b836003811115610a9257610a9161110f565b5b148015610ac3575060016003811115610aae57610aad61110f565b5b826003811115610ac157610ac061110f565b5b145b5b80610b225750600380811115610add57610adc61110f565b5b836003811115610af057610aef61110f565b5b148015610b21575060026003811115610b0c57610b0b61110f565b5b826003811115610b1f57610b1e61110f565b5b145b5b15610b305760019050610b35565b600290505b5b60008060016003811115610b4d57610b4c61110f565b5b836003811115610b6057610b5f61110f565b5b03610bb8578560000160009054906101000a900473ffffffffffffffffffffffffffffffffffffffff1691508560010160009054906101000a900473ffffffffffffffffffffffffffffffffffffffff169050610c34565b60026003811115610bcc57610bcb61110f565b5b836003811115610bdf57610bde61110f565b5b03610c33578560010160009054906101000a900473ffffffffffffffffffffffffffffffffffffffff1691508560000160009054906101000a900473ffffffffffffffffffffffffffffffffffffffff1690505b5b600073ffffffffffffffffffffffffffffffffffffffff168273ffffffffffffffffffffffffffffffffffffffff1614610ea357678ac7230489e80000600260009054906101000a900473ffffffffffffffffffffffffffffffffffffffff1673ffffffffffffffffffffffffffffffffffffffff166370a08231836040518263ffffffff1660e01b8152600401610ccc919061121e565b602060405180830381865afa158015610ce9573d6000803e3d6000fd5b505050506040513d601f19601f82011682018060405250810190610d0d9190611614565b1015610d4e576040517f08c379a0000000000000000000000000000000000000000000000000000000008152600401610d459061168d565b60405180910390fd5b600260009054906101000a900473ffffffffffffffffffffffffffffffffffffffff1673ffffffffffffffffffffffffffffffffffffffff166323b872dd8230678ac7230489e800006040518463ffffffff1660e01b8152600401610db5939291906116e8565b6020604051808303816000875af1158015610dd4573d6000803e3d6000fd5b505050506040513d601f19601f82011682018060405250810190610df8919061174b565b50600260009054906101000a900473ffffffffffffffffffffffffffffffffffffffff1673ffffffffffffffffffffffffffffffffffffffff1663a9059cbb83678ac7230489e800006040518363ffffffff1660e01b8152600401610e5e929190611778565b6020604051808303816000875af1158015610e7d573d6000803e3d6000fd5b505050506040513d601f19601f82011682018060405250810190610ea1919061174b565b505b7fc21e35d02d15ddbaf3de6008e2f794f6eb6c9f0e6b06574732f15320afd4c1c48784604051610ed49291906117e9565b60405180910390a160008660010160156101000a81548160ff02191690831515021790555060036000888152602001908152602001600020600080820160006101000a81549073ffffffffffffffffffffffffffffffffffffffff02191690556000820160146101000a81549060ff02191690556001820160006101000a81549073ffffffffffffffffffffffffffffffffffffffff02191690556001820160146101000a81549060ff02191690556001820160156101000a81549060ff0219169055505050505050505050565b60008060009054906101000a900473ffffffffffffffffffffffffffffffffffffffff169050816000806101000a81548173ffffffffffffffffffffffffffffffffffffffff021916908373ffffffffffffffffffffffffffffffffffffffff1602179055508173ffffffffffffffffffffffffffffffffffffffff168173ffffffffffffffffffffffffffffffffffffffff167f8be0079c531659141344cd1fd0a4f28419497f9722a3daafe3b4186f6b6457e060405160405180910390a35050565b600080fd5b6000819050919050565b61107e8161106b565b811461108957600080fd5b50565b60008135905061109b81611075565b92915050565b6000602082840312156110b7576110b6611066565b5b60006110c58482850161108c565b91505092915050565b600073ffffffffffffffffffffffffffffffffffffffff82169050919050565b60006110f9826110ce565b9050919050565b611109816110ee565b82525050565b7f4e487b7100000000000000000000000000000000000000000000000000000000600052602160045260246000fd5b6004811061114f5761114e61110f565b5b50565b60008190506111608261113e565b919050565b600061117082611152565b9050919050565b61118081611165565b82525050565b60008115159050919050565b61119b81611186565b82525050565b600060a0820190506111b66000830188611100565b6111c36020830187611177565b6111d06040830186611100565b6111dd6060830185611177565b6111ea6080830184611192565b9695505050505050565b6111fd8161106b565b82525050565b600060208201905061121860008301846111f4565b92915050565b60006020820190506112336000830184611100565b92915050565b6004811061124657600080fd5b50565b60008135905061125881611239565b92915050565b6000806040838503121561127557611274611066565b5b60006112838582860161108c565b925050602061129485828601611249565b9150509250929050565b6000602082840312156112b4576112b3611066565b5b60006112c284828501611249565b91505092915050565b6112d4816110ee565b81146112df57600080fd5b50565b6000813590506112f1816112cb565b92915050565b60006020828403121561130d5761130c611066565b5b600061131b848285016112e2565b91505092915050565b6000819050919050565b600061134961134461133f846110ce565b611324565b6110ce565b9050919050565b600061135b8261132e565b9050919050565b600061136d82611350565b9050919050565b61137d81611362565b82525050565b60006020820190506113986000830184611374565b92915050565b600082825260208201905092915050565b7f47616d6520646f6573206e6f7420657869737400000000000000000000000000600082015250565b60006113e560138361139e565b91506113f0826113af565b602082019050919050565b60006020820190508181036000830152611414816113d8565b9050919050565b7f47616d6520616c7265616479206a6f696e656400000000000000000000000000600082015250565b600061145160138361139e565b915061145c8261141b565b602082019050919050565b6000602082019050818103600083015261148081611444565b9050919050565b7f43616e6e6f74206a6f696e20796f7572206f776e2067616d6500000000000000600082015250565b60006114bd60198361139e565b91506114c882611487565b602082019050919050565b600060208201905081810360008301526114ec816114b0565b9050919050565b7f4e487b7100000000000000000000000000000000000000000000000000000000600052601160045260246000fd5b600061152d8261106b565b91507fffffffffffffffffffffffffffffffffffffffffffffffffffffffffffffffff820361155f5761155e6114f3565b5b600182019050919050565b600060408201905061157f60008301856111f4565b61158c6020830184611100565b9392505050565b7f47616d65206973206e6f74206163746976650000000000000000000000000000600082015250565b60006115c960128361139e565b91506115d482611593565b602082019050919050565b600060208201905081810360008301526115f8816115bc565b9050919050565b60008151905061160e81611075565b92915050565b60006020828403121561162a57611629611066565b5b6000611638848285016115ff565b91505092915050565b7f496e73756666696369656e74206c6f7365722062616c616e6365000000000000600082015250565b6000611677601a8361139e565b915061168282611641565b602082019050919050565b600060208201905081810360008301526116a68161166a565b9050919050565b6000819050919050565b60006116d26116cd6116c8846116ad565b611324565b61106b565b9050919050565b6116e2816116b7565b82525050565b60006060820190506116fd6000830186611100565b61170a6020830185611100565b61171760408301846116d9565b949350505050565b61172881611186565b811461173357600080fd5b50565b6000815190506117458161171f565b92915050565b60006020828403121561176157611760611066565b5b600061176f84828501611736565b91505092915050565b600060408201905061178d6000830185611100565b61179a60208301846116d9565b9392505050565b600481106117b2576117b161110f565b5b50565b60008190506117c3826117a1565b919050565b60006117d3826117b5565b9050919050565b6117e3816117c8565b82525050565b60006040820190506117fe60008301856111f4565b61180b60208301846117da565b939250505056fea2646970667358221220bcbc24078ed8d00eb75785c34f0e477be0ee4d406dc322f119807722cb98144364736f6c63430008180033",
  "linkReferences": {},
  "deployedLinkReferences": {}
}